:020000040800F2
:10000000C8050020F5430008CD430008CF43000891
:10001000D1430008D3430008D54300080000000086
:10002000000000000000000000000000D7430008AE
:10003000D943000800000000DB430008DD4300084E
:100040001D440008214400082544000829440008F4
:100050002D440008314400083544000839440008A4
:100060003D44000841440008454400084944000854
:100070004D440008C71F00085144000855440008BB
:10008000594400085D4400086144000865440008C4
:10009000694400086D440008714400087544000874
:1000A000794400087D440008814400088544000824
:1000B000D31F0008894400088D44000891440008BB
:1000C00095440008994400089D440008A144000894
:1000D000A5440008A9440008AD440008B144000844
:1000E000B5440008B944000800000000BD44000801
:1000F000C1440008C5440008C9440008CD440008B4
:10010000D1440008D5440008D9440008DD44000863
:10011000E1440008E5440008E9440008ED44000813
:10012000F1440008F5440008F9440008FD440008C3
:100130000145000805450008094500080D4500086F
:1001400000000000000000000000000000000000AF
:100150001145000815450008194500081D4500080F
:100160002145000825450008294500082D450008BF
:1001700031450008354500083945000800000000F9
:100180003D4500084145000845450008494500082F
:100190004D450008514500085545000859450008DF
:1001A0005D4500086145000865450008694500088F
:1001B0006D4500087145000875450008794500083F
:1001C0007D450008814500088545000889450008EF
:1001D0008D4500089145000895450008994500089F
:1001E0009D450008A1450008A5450008A94500084F
:1001F000AD450008B1450008B5450008B9450008FF
:10020000BD450008C1450008C5450008C9450008AE
:10021000CD450008D1450008D5450008D94500085E
:10022000DD450008E1450008E54500080000000044
:10023000E9450008ED45000800000000F145000810
:10024000F5450008F9450008FD450008014600088D
:1002500005460008094600080D460008114600083A
:1002600015460008194600081D46000821460008EA
:1002700025460008294600082D4600080000000019
:1002800031460008354600083946000800000000E5
:10029000000000003D4600082DE9F041040001F097
:1002A00007FA0700002C01D101208CE22068DFF85A
:1002B0001C1588424AD02068DFF81415884245D0C2
:1002C0002068DFF81015884240D02068DFF8081554
:1002D00088423BD02068DFF80415884236D0206879
:1002E000DFF8FC14884231D02068DFF8F814884227
:1002F0002CD02068DFF8F014884227D02068DFF87F
:10030000EC14884222D02068DFF8E41488421DD023
:100310002068DFF8E014884218D02068DFF8D8148D
:10032000884213D02068DFF8D41488420ED02068A9
:10033000DFF8CC14884209D02068DFF8C81488425E
:1003400004D02068DFF8C014884201D1012000E009
:100350000020C0B2002800F0E780606A0028022078
:1003600084F83500002084F834002068DFF85C143D
:1003700088424AD02068DFF85814884245D0206867
:10038000DFF85014884240D02068DFF84C148842CF
:100390003BD02068DFF84414884236D02068DFF86C
:1003A0004014884231D02068DFF8381488422CD0BD
:1003B0002068DFF83414884227D02068DFF82C1436
:1003C000884222D02068DFF8281488421DD0206897
:1003D000DFF82014884218D02068DFF81C14884207
:1003E00013D02068DFF8141488420ED02068DFF89C
:1003F0001014884209D02068DFF80814884204D01D
:100400002068DFF80414884206D12068006840089C
:1004100040002168086005E020680068400840004E
:100420002168086020680068C0070BD501F040F91A
:10043000C01B0628F6D320206065032084F8350011
:100440000120C0E120680168DFF8C0030140A06816
:100450000143E06801432069014360690143A069E9
:100460000143E0690143206A0143606A042803D123
:10047000E06A0143206B0143DFF894030068000C3D
:100480000004B0F1005F1FD36068292802D36068C0
:100490002F2811D360683F2802D3606843280BD30C
:1004A0006068472802D36068492805D360684F28F0
:1004B00004D36068532801D2012000E00020C0B2BC
:1004C000002801D051F48011206801602068D0F824
:1004D00014805FEAD8085FEAC808606A50EA080832
:1004E000606A042811D1A06A50EA0808E06A00286E
:1004F0000BD0200000F0B4FF002806D0402060653B
:10050000012084F8350001205DE12068C0F81480E6
:10051000200000F02AFF05003F2094F85C1011F045
:100520001F018840A860A4E02068DFF8E812884234
:1005300022D02068DFF8E01288421DD02068DFF862
:10054000DC12884218D02068DFF8D412884213D019
:100550002068DFF8D01288420ED02068DFF8C81279
:10056000884209D02068DFF8C412884204D020688D
:10057000DFF8C012884201D1012000E00020C0B2A3
:1005800000286FD02068DFF88C12884222D02068C3
:10059000DFF8841288421DD02068DFF8801288427C
:1005A00018D02068DFF87812884213D02068DFF86E
:1005B000741288420ED02068DFF86C12884209D08D
:1005C0002068DFF86812884204D02068DFF86412DF
:1005D000884201D1012000E00020C0B200280220A2
:1005E00084F83500002084F834002068D0F80080BA
:1005F0006FF31018A068402801D1102006E0A06811
:10060000802802D14FF4804000E0002050EA080822
:10061000E06858EAD008206958EAD008606958EACA
:10062000D008A06958EAD008E06958EAD008206AE2
:1006300058EA10182068C0F800802168DFF8F0013F
:1006400041181420B1FBF0F08000E065200000F0BC
:100650008CFE0600012094F85C1011F01F01884008
:10066000706006E040206065032084F835000120BA
:10067000A9E02068DFF85411884272D02068DFF8C2
:10068000501188426DD02068DFF84811884268D048
:100690002068DFF84411884263D02068DFF83C11FD
:1006A00088425ED02068DFF83811884259D020682F
:1006B000DFF83011884254D02068DFF82C118842CE
:1006C0004FD02068DFF8241188424AD02068DFF834
:1006D0002011884245D02068DFF81811884240D0A8
:1006E0002068DFF8141188423BD02068DFF80C1135
:1006F000884236D02068DFF80811884231D020685F
:10070000DFF8001188422CD02068DFF8FC10884206
:1007100027D02068DFF8FC10884222D02068DFF85C
:10072000F81088421DD02068DFF8F010884218D0F9
:100730002068DFF8EC10884213D02068DFF8E4105E
:1007400088420ED02068DFF8E010884209D0206887
:10075000DFF8D810884204D02068DFF8D81088422B
:1007600001D1012000E00020C0B2002825D02000E7
:1007700000F0C3FEA068802801D1002060602079CD
:1007800000F0FF00216E0860A06E616E4860606836
:1007900000280CD06068092809D2200000F003FF6F
:1007A0000020E16E0860606F216F486005E0002066
:1007B000E06600202067002060670020606501205F
:1007C00084F835000020BDE8F081000010000240F0
:1007D00028000240400002405800024070000240E1
:1007E00088000240A0000240B8000240100402400D
:1007F00028040240400402405804024070040240B1
:1008000088040240A0040240B80402403F8010FE69
:100810000010005C085402581C540258305402580E
:1008200044540258585402586C5402588054025888
:10083000F8ABFDA7945402582DE9FC4704000020B2
:100840000090DFF8700A00684FF41651B0FBF1F623
:10085000A76DD4F85880D7F80090D8F800A0206889
:10086000DFF8541A88424AD02068DFF8501A8842CC
:1008700045D02068DFF8481A884240D02068DFF869
:10088000441A88423BD02068DFF83C1A884236D0B0
:100890002068DFF8381A884231D02068DFF8301A33
:1008A00088422CD02068DFF82C1A884227D0206894
:1008B000DFF8241A884222D02068DFF8201A884204
:1008C0001DD02068DFF8181A884218D02068DFF899
:1008D000141A884213D02068DFF80C1A88420ED010
:1008E0002068DFF8081A884209D02068DFF8001A6B
:1008F000884204D02068DFF8FC19884201D1012029
:1009000000E00020C0B2002800F03083082094F8F6
:100910005C1011F01F01884019EA000F6BD02068AD
:10092000DFF8941988424AD02068DFF8901988428D
:1009300045D02068DFF88819884240D02068DFF869
:10094000841988423BD02068DFF87C19884236D071
:100950002068DFF87819884231D02068DFF87019F4
:1009600088422CD02068DFF86C19884227D0206894
:10097000DFF86419884222D02068DFF860198842C5
:100980001DD02068DFF85819884218D02068DFF899
:100990005419884213D02068DFF84C1988420ED0D1
:1009A0002068DFF84819884209D02068DFF840192C
:1009B000884204D02068DFF83C19884204D12068BE
:1009C000006810F0040003E02068006810F00800E0
:1009D000002810D02068006830F00400216808600A
:1009E000082094F85C1011F01F018840B860606D19
:1009F00050F00100606594F85C0010F01F0049465B
:100A0000C140C80764D52068DFF8AC1888424AD0D6
:100A10002068DFF8A818884245D02068DFF8A018C1
:100A2000884240D02068DFF89C1888423BD020687C
:100A3000DFF89418884236D02068DFF89018884292
:100A400031D02068DFF8881888422CD02068DFF881
:100A50008418884227D02068DFF87C18884222D08A
:100A60002068DFF8781888421DD02068DFF87018F9
:100A7000884218D02068DFF86C18884213D02068AC
:100A8000DFF8641888420ED02068DFF860188842CA
:100A900009D02068DFF85818884204D02068DFF8B1
:100AA0005418884204D12068406910F0800002E0A8
:100AB00020680068002000280AD0012094F85C100B
:100AC00011F01F018840B860606D50F00200606551
:100AD000042094F85C1011F01F01884019EA000FFF
:100AE00064D02068DFF8D01788424AD02068DFF849
:100AF000CC17884245D02068DFF8C417884240D020
:100B00002068DFF8C01788423BD02068DFF8B817AC
:100B1000884236D02068DFF8B417884231D0206888
:100B2000DFF8AC1788422CD02068DFF8A81788427D
:100B300027D02068DFF8A017884222D02068DFF88D
:100B40009C1788421DD02068DFF89417884218D07F
:100B50002068DFF89017884213D02068DFF88817E4
:100B600088420ED02068DFF88417884209D02068B8
:100B7000DFF87C17884204D02068DFF878178842B5
:100B800004D12068006810F0020002E020680068CC
:100B9000002000280AD0042094F85C1011F01F01F6
:100BA0008840B860606D50F004006065102094F8D3
:100BB0005C1011F01F01884019EA000F00F08880D6
:100BC0002068DFF8F41688424AD02068DFF8EC1677
:100BD000884245D02068DFF8E816884240D0206877
:100BE000DFF8E01688423BD02068DFF8DC16884248
:100BF00036D02068DFF8D416884231D02068DFF87C
:100C0000D01688422CD02068DFF8C816884227D03A
:100C10002068DFF8C416884222D02068DFF8BC16AE
:100C200088421DD02068DFF8B816884218D02068A6
:100C3000DFF8B016884213D02068DFF8AC1688427F
:100C40000ED02068DFF8A416884209D02068DFF8AB
:100C5000A016884204D02068DFF89816884204D194
:100C60002068006810F0080003E02068006810F0B9
:100C7000040000282CD0102094F85C1011F01F0103
:100C80008840B86020680068400311D5206800687B
:100C9000000306D4206C00281AD02000216C88475D
:100CA00016E0A06C002813D02000A16C88470FE04C
:100CB00020680068C00505D42068006830F008008E
:100CC00021680860206C002802D02000216C884731
:100CD000202094F85C1011F01F01884019EA000FE1
:100CE00000F0BE802068DFF8D01588424AD0206826
:100CF000DFF8C815884245D02068DFF8C41588425F
:100D000040D02068DFF8BC1588423BD02068DFF86F
:100D1000B815884236D02068DFF8B015884231D047
:100D20002068DFF8AC1588422CD02068DFF8A415C5
:100D3000884227D02068DFF8A015884222D020689A
:100D4000DFF8981588421DD02068DFF89415884296
:100D500018D02068DFF88C15884213D02068DFF89F
:100D6000881588420ED02068DFF88015884209D0A7
:100D70002068DFF87C15884204D02068DFF87415FD
:100D8000884204D12068006810F0100003E0206859
:100D9000006810F00200002862D0202094F85C1057
:100DA00011F01F018840B86094F8350004282BD159
:100DB0002068006830F016002168086020684069EB
:100DC00030F0800021684861206C002802D1A06CBE
:100DD000002805D02068006830F00800216808600D
:100DE0003F2094F85C1011F01F018840B86001208A
:100DF00084F83500002084F83400206D002802D0EB
:100E00002000216D884752E220680068400311D518
:100E100020680068000306D4606C002820D0200001
:100E2000616C88471CE0E06B002819D02000E16B62
:100E3000884715E020680068C0050BD4206800686A
:100E400030F0100021680860012084F8350000208F
:100E500084F83400E06B002802D02000E16B884762
:100E6000606D002800F02382606DC00776D50420F5
:100E700084F835002068DFF8401488424AD02068A2
:100E8000DFF83814884245D02068DFF834148842EF
:100E900040D02068DFF82C1488423BD02068DFF86F
:100EA0002814884236D02068DFF82014884231D0D8
:100EB0002068DFF81C1488422CD02068DFF8141456
:100EC000884227D02068DFF81014884222D020689A
:100ED000DFF8081488421DD02068DFF80414884227
:100EE00018D02068DFF8FC13884213D02068DFF8A0
:100EF000F81388420ED02068DFF8F013884209D03A
:100F00002068DFF8EC13884204D02068DFF8E4138F
:100F1000884206D1206800684008400021680860C7
:100F200005E02068006840084000216808600098DB
:100F3000401C0090864203D320680068C007F6D4A6
:100F400020680068C00703D5032084F8350002E05C
:100F5000012084F83500002084F83400E06C00287B
:100F600000F0A5812000E16C8847A0E12068DFF84F
:100F7000D014884222D02068DFF8C81488421DD0DF
:100F80002068DFF8C414884218D02068DFF8BC1449
:100F9000884213D02068DFF8B81488420ED0206849
:100FA000DFF8B014884209D02068DFF8AC1488421A
:100FB00004D02068DFF8A414884201D1012000E0A9
:100FC0000020C0B2002800F072812068006805008F
:100FD000042094F85C1011F01F0188401AEA000FF9
:100FE00074D0680772D5042094F85C1011F01F01CA
:100FF0008840C8F80400280411D5E80307D4A06C81
:10100000002800F054812000A16C88474FE1206C3B
:10101000002800F04C812000216C884747E1A80699
:101020004CD42068A44988423BD02068A349884218
:1010300037D02068A249884233D02068A14988422D
:101040002FD02068A04988422BD020689F49884231
:1010500027D020689E49884223D020689D49884235
:101060001FD020689C4988421BD020689B49884239
:1010700017D020689A49884213D02068994988423D
:101080000FD02068984988420BD020689749884241
:1010900007D020689649884203D020689549884245
:1010A00006D12068006830F008002168086005E07B
:1010B0002068006830F0040021680860206C002877
:1010C00000F0F5802000216C8847F0E0022094F8C1
:1010D0005C1011F01F0188401AEA000F79D0A807B0
:1010E00077D5022094F85C1011F01F018840C8F8F1
:1010F0000400280411D5E80307D4606C002800F030
:10110000D6802000616C8847D1E0E06B002800F0B9
:10111000CE802000E16B8847C9E0A80652D4206841
:10112000654988423BD020686449884237D02068AE
:101130006349884233D02068624988422FD02068B2
:10114000614988422BD020686049884227D02068B6
:101150005F49884223D020685E4988421FD02068BA
:101160005D4988421BD020685C49884217D02068BE
:101170005B49884213D020685A4988420FD02068C2
:10118000594988420BD020685849884207D02068C6
:101190005749884203D020685649884206D12068C2
:1011A000006830F014002168086005E020680068DD
:1011B00030F00A0021680860012084F83500002022
:1011C00084F83400E06B002871D02000E16B884780
:1011D0006DE0082094F85C1011F01F0188401AEAB5
:1011E000000F64D0280762D52068334988423BD07D
:1011F00020683249884237D020683149884233D04C
:101200002068304988422FD020682F4988422BD04F
:1012100020682E49884227D020682D49884223D053
:1012200020682C4988421FD020682B4988421BD057
:1012300020682A49884217D020682949884213D05B
:101240002068284988420FD02068274988420BD05F
:1012500020682649884207D020682549884203D063
:1012600020682449884206D12068006830F01C00BC
:101270002168086005E02068006830F00E002168F1
:101280000860012094F85C1011F01F018840C8F834
:10129000040001206065012084F83500002084F8F6
:1012A0003400E06C002802D02000E16C8847BDE8E3
:1012B000F3870000040000201000024028000240D4
:1012C0004000024058000240700002408800024086
:1012D000A0000240B800024010040240280402406E
:1012E0004004024058040240700402408804024056
:1012F000A0040240B804024010B403000024002BF4
:1013000001D101202FE093F83400012801D10220FF
:1013100029E0012083F8340093F8350001281BD11F
:101320000800C0B2002808D002280AD007D3042839
:101330000BD008D305280AD00BE0DA630EE01A645C
:101340000CE05A640AE09A6408E0DA6406E01A6580
:1013500004E00120040001E001200400002083F8E3
:1013600034002000C0B210BC70470168DFF8B8221A
:1013700091423ED00168DFF8B422914239D0016831
:10138000DFF8AC22914234D00168DFF8A822914204
:101390002FD00168A84A91422BD00168A74A9142F8
:1013A00027D00168A64A914223D00168A54A9142FC
:1013B0001FD00168A44A91421BD00168A34A914200
:1013C00017D00168A24A914213D00168A14A914204
:1013D0000FD00168A04A91420BD001689F4A914208
:1013E00007D001689E4A914203D001689D4A91420C
:1013F00001D1012100E00021C9B2002918D00178F3
:1014000001F0FF0110391822B1FBF2F1974A11F0F7
:101410000703D25CC265042905D30268920A9202CE
:10142000121D826508E00268920A9202826503E05A
:101430000168090A09028165806D7047000000009B
:10144000085402581C54025830540258445402584C
:10145000585402586C5402588054025894540258FC
:10146000020000209169002917D1916A002905D056
:10147000022903D008D303290DD00DE0D16AC90198
:1014800001D50121080036E0D16AB1F1C07F01D158
:10149000012108002FE02EE02DE09169B1F5005FF9
:1014A00019D1916A002905D0022903D005D3032957
:1014B00009D00FE0012108001DE0D16AC90101D562
:1014C0000121080017E0D16AB1F1C07F01D10121EB
:1014D000080010E00FE0916A0029022902D9C91E14
:1014E00003D008E00121080005E0D16AC90101D557
:1014F00001210800FFE7C0B2704710B4026801681C
:101500005B4B99421BD001685A4B994217D0016836
:10151000594B994213D00168584B99420FD001683A
:10152000574B99420BD00168564B994207D001683E
:10153000554B994203D001684B4B994201D101218F
:1015400000E00021C9B2002912D0017801F0FF01AA
:1015500008391423B1FBF3F34C4911EB8301016605
:101560004B494166012413F01F018C40846618E04A
:10157000017801F0FF0110391823B1FBF3F345495D
:101580008A4203D230498A4200D30833424911EBE0
:101590008301016641494166012413F01F018C401B
:1015A000846610BC7047017901F0FF01002939D031
:1015B000092937D202682E4B9A421BD002682D4B64
:1015C0009A4217D002682C4B9A4213D002682B4BD8
:1015D0009A420FD002682A4B9A420BD00268294BDC
:1015E0009A4207D00268284B9A4203D002681E4BE9
:1015F0009A4201D1012200E00022D2B2002A06D094
:10160000274A12EB8102C266264A026705E0264A93
:1016100012EB8102C266254A0267012311F1FF0223
:1016200093404367704700001000024028000240CA
:101630004000024058000240700002408800024012
:10164000A0000240B80002401004024028040240FA
:1016500040040240580402407004024088040240E2
:10166000A0040240B80402409454025814440008F4
:10167000085402581C54025830540258445402581A
:10168000585402586C54025880540258005802585A
:1016900080580258B9040240000802408008024005
:1016A000FC58025840590258FC08024040090240C8
:1016B00001480068704700BFC401002070B54FF4B6
:1016C000F0740025DFF8A86A2A002100300001F03C
:1016D00073F800F046F9002807D00120DFF8941ACB
:1016E0000870DFF8900A00781EE000F081F800280A
:1016F00007D00120DFF87C1A0870DFF8780A00783C
:1017000012E000F012F8002807D00120DFF8641A78
:101710000870DFF8600A007806E00420DFF8541A49
:101720000870DFF8500A007870BD18B58FB0DFF888
:10173000480A006850F00100DFF83C1A0860DFF842
:10174000380A006810F0010000900098DFF82C0AB9
:1017500000684008DFF8281AB0FBF1F0441E5FF083
:101760008040DFF8201A08601D20DFF8181AC860D2
:10177000200080B2DFF80C1A48600020DFF8041A5D
:1017800008610020DFF8FC198860DFF8F80901F033
:101790005BF8002801D0012028E0002008900020FC
:1017A0000A9009200990002208A9DFF8D80901F061
:1017B00088F8002801D0012018E0002001900020C6
:1017C000039016200290042201A9DFF8B80901F065
:1017D00078F8002801D0012008E0022200211C2016
:1017E00001F038FB1C2001F047FB002010B010BDB9
:1017F00080B5DFF89409006850F00100DFF888191F
:101800000860DFF88409006810F00100009000987B
:10181000DFF87809DFF8781908601620DFF870190A
:1018200048604020DFF8681988600020DFF8601900
:10183000C8600020DFF8581908610020DFF850194F
:10184000C8614FF40060DFF8481948614FF4005058
:10185000DFF83C1988615FF40030DFF83419086262
:10186000DFF82C09FEF718FD002801D0012077E0F1
:10187000DFF82009DFF8201908601220DFF81819B6
:1018800048604020DFF8101988600020DFF8081950
:10189000C8604FF48060DFF8001908610020DFF8AD
:1018A000F818C8614FF40060DFF8EC1848614FF495
:1018B0000050DFF8E41888615FF40030DFF8D818D2
:1018C0000862DFF8D408FEF7E7FC002801D0012009
:1018D00046E0DFF8C808DFF8C81808601320DFF812
:1018E000C01848604020DFF8B81888600020DFF892
:1018F000B018C8600020DFF8A81808610020DFF8E1
:10190000A018C8614FF40060DFF8941848614FF4E4
:101910000050DFF88C1888615FF40030DFF8801821
:101920000862DFF87C08FEF7B7FC002801D0012030
:1019300016E0DFF870280021DFF86408FFF7DCFC10
:10194000DFF864280421DFF85808FFF7D5FC0122EE
:1019500000210D2001F07EFA0D2001F08DFA00200B
:1019600002BD80B586B0DFF84408006850F0010081
:10197000DFF838180860DFF83408006810F001005C
:101980000090009801200190012002900220049014
:101990000020039001A9DFF8CC0B01F093FA00209E
:1019A00007B000BD80B5DFF8CC0700780428FAD175
:1019B0000220DFF8C01708701D20DFF8F417086058
:1019C000F023DFF8F027DFF8F017DFF8C40700F0A6
:1019D0002BFBF023DFF8DC27DFF89417DFF8B807DC
:1019E00000F022FBF023DFF8CC27DFF8D017DFF878
:1019F000B00700F019FBDFF898070068DFF8C017A0
:101A0000884204D33820DFF8BC17086027E0DFF8ED
:101A100080070068DFF8B017884204D33820DFF869
:101A2000AC1708601BE0DFF868070068DFF8A01754
:101A3000884204D33820DFF89C1708600FE0DFF8F5
:101A400050070068DFF89017884204D33820DFF889
:101A50008C17086003E03820DFF884170860DFF88F
:101A600038070068DFF85817884205D34FF46060E4
:101A7000DFF8501708602BE0DFF81C070068DFF87C
:101A80004817884205D34FF46060DFF840170860BC
:101A90001EE0DFF804070068DFF83417884205D33A
:101AA0004FF46060DFF82C17086011E0DFF8E806FB
:101AB0000068DFF82417884205D34FF46060DFF830
:101AC0001C17086004E04FF46060DFF8141708602A
:101AD000DFF8CC060068DFF8E816884205D35FF42B
:101AE0006010DFF8E01608602BE0DFF8B40600684D
:101AF000DFF8D416884205D35FF46010DFF8CC1607
:101B000008601EE0DFF898060068DFF8C416884217
:101B100005D35FF46010DFF8BC16086011E0DFF851
:101B200080060068DFF8B016884205D35FF46010C5
:101B3000DFF8A816086004E05FF46010DFF8A01674
:101B40000860DFF85C060068DFF84016884268D05D
:101B5000DFF84C060068DFF83C16884261D0DFF8F9
:101B600040060068DFF8341688425AD0DFF83006A5
:101B70000068DFF8F419884253D0DFF824060068C3
:101B8000DFF8E81988424CD0DFF814060068DFF867
:101B9000E019884245D0DFF808060068DFF8D4195C
:101BA00088423ED0DFF8F8050068DFF8CC1988429B
:101BB00037D0DFF8EC050068DFF8C019884230D074
:101BC000DFF8DC050068DFF8B819884229D0DFF8B3
:101BD000D0050068DFF8AC19884222D0DFF8C005D4
:101BE0000068DFF8A41988421BD0DFF8B40500684C
:101BF000DFF89819884214D0DFF8A4050068DFF8F0
:101C0000901988420DD0DFF898050068DFF8841934
:101C1000884206D0DFF888050068DFF8481B884254
:101C20000AD1DFF87C050068006850F01C00DFF87E
:101C300070150968086009E0DFF86405006800684D
:101C400050F00E00DFF8581509680860DFF840050D
:101C50000068DFF83815884268D0DFF8340500687E
:101C6000DFF83015884261D0DFF824050068DFF81E
:101C70002C1588425AD0DFF818050068DFF8E818FC
:101C8000884253D0DFF808050068DFF8E018884282
:101C90004CD0DFF8FC040068DFF8D418884245D047
:101CA000DFF8EC040068DFF8CC1888423ED0DFF89B
:101CB000E0040068DFF8C018884237D0DFF8D004AD
:101CC0000068DFF8B818884230D0DFF8C404006834
:101CD000DFF8AC18884229D0DFF8B4040068DFF8D8
:101CE000A418884222D0DFF8A8040068DFF898180A
:101CF00088421BD0DFF898040068DFF8901888420B
:101D000014D0DFF88C040068DFF8841888420DD006
:101D1000DFF87C040068DFF87C18884206D0DFF822
:101D200070040068DFF83C1A88420AD1DFF86004CA
:101D30000068006850F00100DFF85414096808607A
:101D400009E0DFF84C040068006850F00100DFF89B
:101D5000401409680860DFF840040068DFF82C14BC
:101D6000884268D0DFF830040068DFF82814884221
:101D700061D0DFF824040068DFF8201488425AD0CC
:101D8000DFF814040068DFF8E017884253D0DFF86A
:101D900008040068DFF8D41788424CD0DFF8F80355
:101DA0000068DFF8CC17884245D0DFF8EC03006804
:101DB000DFF8C01788423ED0DFF8DC030068DFF8A8
:101DC000B817884237D0DFF8D0030068DFF8AC17C7
:101DD000884230D0DFF8C0030068DFF8A4178842DB
:101DE00029D0DFF8B4030068DFF89817884222D0C2
:101DF000DFF8A4030068DFF8901788421BD0DFF8F3
:101E000098030068DFF88417884214D0DFF888034D
:101E10000068DFF87C1788420DD0DFF87C0300688B
:101E2000DFF87017884206D0DFF86C030068DFF82F
:101E3000341988420AD1DFF860030068006850F066
:101E40000100DFF854130968086009E0DFF848036F
:101E50000068006850F00100DFF83C130968086072
:101E6000DFF83C030068DFF8241388425CD0DFF819
:101E700030030068DFF81C13884255D0DFF82003D8
:101E80000068DFF8181388424ED0DFF814030068AA
:101E9000DFF8D416884247D0C1480068DFF8CC1676
:101EA000884241D0BE480068DFF8C41688423BD063
:101EB000BB480068DFF8BC16884235D0B8480068D7
:101EC000DFF8B41688422FD0B5480068DFF8AC16AA
:101ED000884229D0B2480068DFF8A416884223D08F
:101EE000AF480068DFF89C1688421DD0AC480068F7
:101EF000DFF89416884217D0A9480068DFF88C16DE
:101F0000884211D0A6480068DFF8841688420BD0BA
:101F1000A3480068DFF87C16884205D0A048006816
:101F2000DFF84018884208D19D480068006850F0EA
:101F300001009B490968086007E09948006800684B
:101F400050F001009649096808600020DFF8181871
:101F50000860DFF818080068C06850F48070DFF887
:101F60000C180968C860DFF804080068C06850F4FD
:101F70000070DFF8F8170968C860DFF8F00700683C
:101F8000C06850F48060DFF8E4170968C860012277
:101F900000215FF0804000F0BFFE012204215FF0CD
:101FA000804000F0B9FE1D20DFF8C01709684862C4
:101FB000DFF8B8070068006850F00100DFF8AC17E0
:101FC0000968086001BD80B5DFF8A407FEF734FC9E
:101FD00001BD80B500F001F801BD80B51C2000F006
:101FE00058FF68480068006A41F2111108420ED19A
:101FF00064480068006A40F24441084207D16148E1
:1020000000680068400840005E49096808605D4853
:102010000068C068400840005A490968C860042048
:10202000DFF85017087001BD70B4856D0468574E15
:10203000B44270D00468574EB4426CD00468574E16
:10204000B44268D00468DFF82065B44263D0046805
:10205000DFF81865B4425ED00468DFF81465B44256
:1020600059D00468DFF80C65B44254D00468DFF836
:102070000865B4424FD00468DFF80065B4424AD026
:102080000468DFF8FC64B44245D00468DFF8F46407
:10209000B44240D00468DFF8F064B4423BD0046836
:1020A000DFF8E864B44236D00468DFF8E464B44290
:1020B00031D00468DFF8DC64B4422CD00468DFF867
:1020C000A466B44227D00468DFF8AC66B44222D0DC
:1020D0000468DFF8A866B4421DD00468DFF8A06683
:1020E000B44218D00468DFF89C66B44213D0046888
:1020F000DFF89466B4420ED00468DFF89066B4420C
:1021000009D00468DFF88866B44204D00468DFF8B8
:102110008466B44201D1012400E00024E4B2002C22
:1021200008D0846E466E7460C46E002C02D0446F7A
:10213000066F74603F2490F85C6016F01F06B44090
:10214000AC600468246834F4802406683460046851
:1021500063608468402C04D10468A2600468E16074
:1021600003E00468A1600468E26070BC704700008E
:10217000000203240D000020E8440258040000205F
:1021800000366E0178010020D84402581000024049
:10219000100000202800024088000020400002407B
:1021A00000010020E521000825250008E044025830
:1021B0002C00004014000258000003246000032497
:1021C000B904024004540258590402400C0402406D
:1021D000B900024008040240590002400C000240CD
:1021E0000800024010B504000D2000F052FEDFF898
:1021F000A8050068DFF8A415884267D0DFF89805C5
:102200000068DFF89C15884260D0DFF88C05006814
:10221000DFF89015884259D0DFF87C050068DFF8B8
:102220004813884252D0DFF870050068DFF83C138D
:1022300088424BD0DFF860050068DFF8341388422D
:1022400044D0DFF854050068DFF8281388423DD0F9
:10225000DFF844050068DFF82013884236D0DFF845
:1022600038050068DFF8141388422FD0DFF82805FE
:102270000068DFF80C13884228D0DFF81C050068DE
:10228000DFF80013884221D0DFF80C050068DFF882
:10229000F81288421AD0DFF800050068DFF8EC1267
:1022A000884213D0DFF8F0040068DFF8E4128842B7
:1022B0000CD0DFF8E4040068B649884206D0DFF8A5
:1022C000D8040068DFF89C1488420AD1DFF8C804FB
:1022D0000068006840084000DFF8BC140968086026
:1022E00009E0DFF8B4040068006840084000DFF847
:1022F000A81409680860DFF8B0040068DFF89C14CF
:1023000088425CD0DFF8A0040068DFF894148842AB
:1023100055D0DFF894040068DFF8881488424ED066
:10232000DFF8840400689049884248D0DFF87804D8
:1023300000688E49884242D0DFF86C0400688C49FE
:1023400088423CD0DFF8600400688A49884236D071
:10235000DFF8540400688849884230D0DFF8480428
:102360000068864988422AD0DFF83C040068844926
:10237000884224D0DFF830040068824988421ED0A9
:10238000DFF8240400688049884218D0DFF8180478
:1023900000687E49884212D0DFF80C0400687C494E
:1023A00088420CD0DFF8000400687A49884206D0E1
:1023B000DFF8F4030068DFF8AC1388420AD1DFF8D5
:1023C000E8030068006840084000DFF8DC13096893
:1023D000086009E0DFF8D0030068006840084000AA
:1023E000DFF8C41309680860DFF884030068DFF8C9
:1023F000AC13884251D0DFF878030068DFF8A013EF
:1024000088424AD0DFF868030068DFF898138842F2
:1024100043D0DFF85C030068534988423DD0DFF8C1
:10242000500300685149884237D0DFF84403006800
:102430004F49884231D0CE4800684E4988422CD05E
:10244000CB4800684C49884227D0C94800684B49AE
:10245000884222D0C6480068494988421DD0C448F5
:1024600000684849884218D0C148006846498842F7
:1024700013D0BF480068454988420ED0BC48006868
:102480004349884209D0BA4800684249884204D08A
:10249000B7480068B349884208D1B5480068006869
:1024A00040084000B2490968086007E0B048006889
:1024B000006840084000AE4909680860AB48006801
:1024C000C06830F48070A9490968C860A7480068EE
:1024D000C06830F40070A5490968C860A348006866
:1024E000C06830F48060A1490968C86000220021FA
:1024F0005FF0804000F010FC002204215FF080407B
:1025000000F00AFC40F2DC50A84908600020A8490D
:10251000086096480068C06850F001009349096857
:10252000C86010BDFEE738B5924800780428FBD19A
:1025300000242000C0B2002812D10025280080B25B
:102540000A280BD20020009000230022290089B223
:102550002000C0B200F020F86D1CEFE7641CE8E733
:1025600031BD0000000002585800024070000240D7
:1025700088000240A0000240B8000240100402405F
:102580002804024040040240580402407004024003
:1025900088040240A00402402DE9F041069C050099
:1025A000EDB2002D03D10D00ADB20A2D00D3D6E05F
:1025B000704D2D78042DFBD100263500EDB2082D8D
:1025C00080F2CD807B4F8C461FFA8CFC182505FBD2
:1025D0000CFC5CFA86FCDFF8DCE188461FFA88F820
:1025E000182505FB08F858FA86F53EF815505FF0F7
:1025F000010E1EFA00FE35EA0E0527F81C506D4F3D
:102600008C461FFA8CFC182505FB0CFC5CFA86F541
:1026100007EB4507DFF89CC18E461FFA8EFE182592
:1026200005FB0EFE5EFA86F50CEB45052D8A5FF084
:10263000010C1CFA00FC35EA0C053D825D4F8C460E
:102640001FFA8CFC182505FB0CFC5CFA86F507EBE1
:102650004507DFF860C18E461FFA8EFE182505FB80
:102660000EFE5EFA86F50CEB45052D8C5FF0010C35
:102670001CFA00FC35EA0C053D844E4F8C461FFACF
:102680008CFC182505FB0CFC5CFA86FCDFF824E1C9
:1026900088461FFA88F8182505FB08F858FA86F5C9
:1026A0003EF815509E465FFA8EFE1EFA06FE5FEA61
:1026B000EE1E1EF0010E1EFA00FE5EEA050527F86A
:1026C0001C503C4F8C461FFA8CFC182505FB0CFC5B
:1026D0005CFA86F507EB4507DFF8D8C08E461FFA8F
:1026E0008EFE182505FB0EFE5EFA86F50CEB450501
:1026F0002D8A94465FFA8CFC1CFA06FC5FEAEC1CFF
:102700001CF0010C1CFA00FC5CEA05053D82294F17
:102710008C461FFA8CFC182505FB0CFC5CFA86F530
:1027200007EB4507DFF88CC08E461FFA8EFE182592
:1027300005FB0EFE5EFA86F50CEB45052D8CA446D6
:102740005FFA8CFC1CFA06FC5FEAEC1C1CF0010C26
:102750001CFA00FC5CEA05053D84761C2DE7BDE80B
:10276000F0810000B8040240100000407801002011
:10277000000100200D000020085402581C5402588B
:102780003054025844540258585402586C54025859
:102790008054025894540258100000201000024047
:1027A0002800024040000240880000202C00004029
:1027B000240000400002032462F30F2262F31F4250
:1027C000401810F0030308D0C91A1FD3DB0748BF15
:1027D00000F8012D28BF20F8022D130030B4144654
:1027E0001546103928BF20E93C00FAD8490728BF10
:1027F00020E90C0048BF40F8042D890028BF20F8CC
:10280000022D48BF00F8012D30BC7047C91818BF11
:1028100000F8012DCB0728BF00F8012D70470EE00E
:1028200002684368024408305FEAC37C44BF4B44FB
:102830005B1E52F804CB43F804CB091FF9D150F8C2
:10284000041B0029ECD1704710B50400002C01D105
:10285000012035E094F83D00002805D1002084F8DF
:102860003C00200000F068FC022084F83D00211D9F
:10287000206800F068F8012084F84800012084F8FE
:102880003E00012084F83F00012084F84000012030
:1028900084F84100012084F84200012084F84300BC
:1028A000012084F84400012084F84500012084F8C8
:1028B0004600012084F84700012084F83D000020F4
:1028C00010BDF8B504000D001600002794F83C0078
:1028D000012801D1022035E0012084F83C003000BD
:1028E00000280AD004280DD0082810D00C2813D0B6
:1028F000102816D0142819D01DE02900206800F0F7
:1029000087F81AE02900206800F0D2F815E02900C5
:10291000206800F016F910E02900206800F059F94D
:102920000BE02900206800F089F906E02900206802
:1029300000F0B1F901E001200700002084F83C001C
:102940003800C0B2F2BD0368DFF8A423904212D071
:10295000B0F1804F0FD0DFF89C2390420BD0DFF80E
:102960009823904207D0DFF89423904203D0DFF8F9
:102970009023904203D133F070034A681343DFF889
:10298000702390421ED0B0F1804F1BD0DFF864233B
:10299000904217D0DFF86023904213D0DFF85C2319
:1029A00090420FD0DFF8582390420BD0DFF8542329
:1029B000904207D0DFF85023904203D0DFF84C2339
:1029C000904203D133F44073CA68134333F0800359
:1029D0004A69134303608A68C2620A688262DFF848
:1029E000102390420FD0DFF8182390420BD0DFF86D
:1029F0001423904207D0DFF81023904203D0DFF871
:102A00000C23904201D10A6902630122426170479E
:102A100030B4026A520852000262056A436884694F
:102A2000DFF8EC221440A408A4000A68144335F02F
:102A300002058A681543DFF8B82290420FD0DFF80C
:102A4000C02290420BD0DFF8BC22904207D0DFF8C2
:102A5000B822904203D0DFF8B422904205D135F07D
:102A60000805CA68154335F00405DFF88422904252
:102A70000FD0DFF88C2290420BD0DFF888229042F2
:102A800007D0DFF88422904203D0DFF88022904202
:102A900007D133F4807333F400734A6913438A69AE
:102AA0001343436084614A684263056230BC7047E7
:102AB00030B4026A32F010020262056A4368846927
:102AC000DFF85022144034F440740A6854EA0224B7
:102AD00035F020058A6855EA0215DFF81422904285
:102AE00003D0DFF81C22904206D135F08005CA6879
:102AF00055EA021535F04005DFF8F42190420FD079
:102B0000DFF8FC2190420BD0DFF8F821904207D08B
:102B1000DFF8F421904203D0DFF8F021904209D190
:102B200033F4806333F400634A6953EA82038A69A9
:102B300053EA8203436084614A688263056230BC61
:102B4000704730B4026A32F480720262056A4368E8
:102B5000C469DFF8BC211440A408A4000A68144327
:102B600035F400758A6855EA0225DFF88421904221
:102B700003D0DFF88C21904206D135F40065CA6895
:102B800055EA022535F48065DFF8642190420FD0C4
:102B9000DFF86C2190420BD0DFF86821904207D01B
:102BA000DFF86421904203D0DFF86021904209D120
:102BB00033F4805333F400534A6953EA02138A69A9
:102BC00053EA02134360C4614A68C263056230BCC1
:102BD000704730B4026A32F480520262056A436878
:102BE000C469DFF83021144034F440740A6854EAB0
:102BF000022435F400558A6855EA0235DFF8F020E2
:102C000090420FD0DFF8F82090420BD0DFF8F4208C
:102C1000904207D0DFF8F020904203D0DFF8EC209C
:102C2000904204D133F480434A6953EA82134360EB
:102C3000C4614A680264056230BC704730B4026AFD
:102C400032F480320262056A4368446DDFF8C020C6
:102C500014400A68144335F400358A6855EA024581
:102C6000234A90420BD0264A904208D0254A9042EF
:102C700005D0254A904202D0244A904204D133F430
:102C800080334A6953EA0223436044654A68826597
:102C9000056230BC704730B4026A32F480120262BE
:102CA000056A4368446D1B4A14400A6854EA0224CA
:102CB00035F400158A6855EA02550D4A90420BD04A
:102CC0000F4A904208D00F4A904205D00E4A9042D7
:102CD00002D00E4A904204D133F480234A6953EA69
:102CE0008223436044654A68C265056230BC704710
:102CF000000001400004004000080040000C0040BB
:102D000000040140004001400044014000480140EF
:102D10008FFFFEFFFF8FFFFE30B4012411F01F0371
:102D200014FA03F3046A9C430462046A11F01F0559
:102D300012FA05F52C43046230BC704710F007030B
:102D4000DFF85C110A684FF6FF010A4052EA0322DD
:102D5000DFF850110A43DFF848110A607047DFF8C6
:102D600040010068C0F3022070470000010009B272
:102D700000290AD4012210F01F018A40DFF828112F
:102D800003001BB25B0941F823207047010009B220
:102D9000002909D4012210F01F018A404349030091
:102DA0001BB25B0941F82320704710B4020012B235
:102DB000002A05D40A013E4B040024B21A5508E04B
:102DC0000A013C4B040024B214F00F04234403F81E
:102DD000042C10BC704770B4030013F00704D4F146
:102DE0000700052801D3042001E0D4F10700251DC8
:102DF000072D01D2002500E0E51E012616FA00F09D
:102E0000401E0140A940012010FA05F56D1E2A4020
:102E10001143080070BC704710B50400601EB0F18B
:102E2000807F01D301200EE0601E234908600F213E
:102E30005FF0FF30FFF7B9FF00202049086007204E
:102E40001F490860002010BD10B504002000FFF7E6
:102E500075FF10BDF8B504000D001600FFF77FFFE9
:102E60000700320029003800FFF7B5FF01002000FD
:102E700000B2FFF79AFFF1BD10B50400200000B2C8
:102E8000FFF774FF10BD10B504002000FFF7C4FF6A
:102E900010BD10B50400200000B2FFF777FF10BD91
:102EA0000CED00E00000FA0500E100E080E200E047
:102EB00000E400E018ED00E014E000E018E000E0BD
:102EC00010E000E0F8B403000025DFF83462086881
:102ED000E840002800F0128108680127AF40384020
:102EE0000200002A00F00881087910F00300012890
:102EF00004D0087910F00300022824D19F685FF005
:102F0000030C2800C0B240001CFA00FC37EA0C0792
:102F1000D1F80CC02800C0B240001CFA00FC5CEAEA
:102F200007079F6058685FF0010C1CFA05FC30EA47
:102F30000C00D1F804C0CCF3001C1CFA05FC5CEAC0
:102F4000000004005C60087910F00300032814D02E
:102F5000DF685FF0030C2800C0B240001CFA00FCE0
:102F600037EA0C07D1F808C02800C0B240001CFAAC
:102F700000FC5CEA07073C00DC60087910F0030005
:102F800002281ED12800C00803EB8000076A5FF00A
:102F90000F0C15F00700C0B280001CFA00FC37EAE5
:102FA0000C07D1F810C015F00700C0B280001CFA61
:102FB00000FC5CEA07073C002800C00803EB800027
:102FC00004621F685FF0030C2800C0B240001CFAC6
:102FD00000FC37EA0C0791F804C01CF0030C280031
:102FE000C0B240001CFA00FC5CEA07073C001C6011
:102FF000486810F4403F00F07F80DFF80801006867
:1030000050F00200DFF8FC703860DFF8F80000686C
:1030100010F0020000900098DFF8EC002F00BF08CD
:1030200050F827705FF00F0C15F00300C0B280005D
:103030001CFA00FC37EA0C073448834201D1002413
:103040002DE03348834201D1012428E031488342F6
:1030500001D1022423E03048834201D103241EE041
:103060002E48834201D1042419E02D48834201D126
:10307000052414E02B48834201D106240FE02A489E
:10308000834201D107240AE02848834201D1082461
:1030900005E02748834201D1092400E00A2415F005
:1030A0000300C0B280008440274317482C00A408C6
:1030B00040F824705FF0B040006890434C68E40230
:1030C00000D510435FF0B04420601A4C246894434C
:1030D0004F68BF0200D514431648046070689043DF
:1030E0004F68BF0300D510437060346894434F6845
:1030F000FF0300D5144334606D1CE8E6F1BC704753
:1031000080000058F4440258080400580000025897
:103110000004025800080258000C0258001002581F
:103120000014025800180258001C025800200258CF
:103130000024025804000058704700002DE9F843AD
:103140000400002C01D1012095E32078C00740F154
:103150008280DFF82807056815F03805DFF82007BA
:10316000D0F80090102D05D0182D0DD119F00300C6
:10317000022809D1DFF80C07006880036BD560686E
:10318000002868D1012076E36068B0F5803F08D15F
:10319000DFF8F006006850F48030DFF8E8160860C9
:1031A00038E06068002810D1DFF8D806006830F4F5
:1031B0008030DFF8D0160860DFF8C806006830F409
:1031C0008020DFF8C016086024E06068B0F5A02F0A
:1031D00010D1DFF8B006006850F48020DFF8A416A4
:1031E0000860DFF8A006006850F48030DFF894161D
:1031F00008600FE0DFF88C06006830F48030DFF8FC
:1032000084160860DFF87C06006830F48020DFF860
:1032100074160860606800280ED0FEF749FA0600B0
:10322000DFF860060068800315D4FEF741FA801BC2
:103230006528F5D303201EE3FEF73AFA0600DFF80F
:1032400044060068800306D5FEF732FA801B652825
:10325000F5D303200FE32078800740F1BE80DFF82C
:103260001C06056815F03805DFF81406D0F8009044
:10327000002D04D0182D51D119F0030F4ED1DFF8D5
:1032800004060068400704D5E068002801D1012049
:10329000F1E2DFF8F005016831F01901E06801435F
:1032A000DFF8E0050160FEF703FA0600DFF8D40559
:1032B0000068400706D4FEF7FBF9801B0328F5D30E
:1032C0000320D8E200F021FB41F20401884219D228
:1032D000206940280AD1DFF8B005006830F47C305E
:1032E00050F40030DFF8A015086016E0DFF898050C
:1032F000006830F47C30216950EA0130DFF888152D
:1033000008600AE0DFF88005006830F0FE402169BF
:1033100050EA0160DFF8701508605EE0E0680028A0
:1033200044D0DFF86005016831F01901E06801431D
:10333000DFF850050160FEF7BBF90600DFF8440531
:103340000068400706D4FEF7B3F9801B0328F5D3C5
:10335000032090E200F0D9FA41F20401884219D228
:10336000206940280AD1DFF82005006830F47C305D
:1033700050F40030DFF81015086016E0DFF808059B
:10338000006830F47C30216950EA0130DFF8F8142D
:1033900008600AE0DFF8F004006830F0FE402169C0
:1033A00050EA0160DFF8E014086016E0DFF8D404AA
:1033B000006840084000DFF8CC140860FEF778F998
:1033C0000600DFF8C0040068400706D5FEF770F974
:1033D000801B0328F5D303204DE22078C00640F17E
:1033E000A480DFF89804056815F03805DFF890042C
:1033F000D0F80090082D05D0182D39D119F0030010
:10340000012835D1DFF87C040068C00504D5E069E7
:10341000802801D001202EE200F077FA41F2040169
:10342000884219D2206A20280AD1DFF85C0400689B
:1034300030F0F84050F08040DFF84C14086016E09F
:10344000DFF84404006830F0F840216A50EA8160F7
:10345000DFF8341408600AE0DFF83004006830F068
:103460007C50216A50EA0160DFF8201408605CE0BB
:10347000E069002842D0DFF80C04006850F08000BA
:10348000DFF800140860FEF713F90600DFF8F40314
:103490000068C00506D4FEF70BF9801B0328F5D39E
:1034A0000320E8E100F031FA41F20401884219D228
:1034B000206A20280AD1DFF8D003006830F0F840F5
:1034C00050F08040DFF8C013086016E0DFF8B80362
:1034D000006830F0F840216A50EA8160DFF8A813F4
:1034E00008600AE0DFF8A403006830F07C50216A2D
:1034F00050EA0160DFF89413086016E0DFF88403F7
:10350000006830F08000DFF87C130860FEF7D0F828
:103510000600DFF870030068C00506D5FEF7C8F89E
:10352000801B0328F5D30320A5E12078000730D5C0
:103530006069002816D0DFF85803006850F00100D9
:10354000DFF84C130860FEF7B3F80600DFF840031D
:10355000006880071DD4FEF7ABF8801B0328F5D365
:10356000032088E1DFF82803006840084000DFF806
:1035700020130860FEF79CF80600DFF814030068CB
:10358000800706D5FEF794F8801B0328F5D30320A7
:1035900071E1207880062AD5A069002813D0B948A7
:1035A000006850F48050B7490860FEF781F80600C3
:1035B000B448006880041AD4FEF77AF8801B032808
:1035C000F6D3032057E1AF48006830F48050AD498E
:1035D0000860FEF76DF80600AA480068800406D56A
:1035E000FEF766F8801B0328F6D3032043E120781A
:1035F00040076CD5A748006850F48070A549086062
:10360000FEF756F80500A3480068C00506D4FEF78B
:103610004FF8401B6528F6D303202CE1A068012851
:1036200006D19D48006850F001009B4908602BE0DE
:10363000A06800280CD198480068400840009649CE
:1036400008609548006830F00400934908601BE06A
:10365000A06805280CD19048006850F004008E49FD
:1036600008608D48006850F001008B4908600BE04D
:10367000894800684008400087490860864800681B
:1036800030F0040084490860A06800280FD0FEF7DD
:103690000FF8060080480068800718D4FEF708F885
:1036A000801B41F289318842F4D30320E3E0FDF727
:1036B000FFFF060078480068800708D5FDF7F8FF8F
:1036C000801B41F289318842F4D30320D3E0606A41
:1036D000002800F0CF806948006810F038001828F2
:1036E00000F09A80606A022840F082806548006895
:1036F00030F0807063490860FDF7DAFF050061482B
:103700000068800106D5FDF7D3FF401B0328F6D3E0
:103710000320B0E05A48016860480140A06A0143B4
:10372000E06A51EA001156480160206B401EC00556
:10373000C00D616B491E490211F47E410843A16B23
:10374000491E090411F4FE010843E16B491E0906F4
:1037500011F0FE4108435249086052480068400891
:10376000400050490860504800686FF3CF00A16CDA
:1037700050EAC1004C4908604A48016831F00C0128
:10378000206C0143474801604648016831F002015E
:10379000606C0143434801604248006850F4803047
:1037A000404908603F48006850F400303D490860D7
:1037B0003C48006850F480203A4908603948006865
:1037C00050F00100374908602E48006850F08070C2
:1037D0002C490860FDF76CFF06002A48006880014C
:1037E00048D4FDF765FF801B0328F6D3032042E091
:1037F0002448006830F0807022490860FDF758FFC7
:10380000060020480068800134D5FDF751FF801B79
:103810000328F6D303202EE019480068070020484B
:1038200000688046606A012822D017F00300A16A70
:1038300088421DD1C7F30510E16A884218D15FEABA
:10384000C850C00D216B491E884211D1C8F34620D3
:10385000616B491E88420BD1C8F30640A16B491E1B
:10386000884205D1C8F30660E16B491E884201D049
:10387000012000E00020BDE8F28300BF10440258A0
:103880002844025800440258044402580C44025888
:103890007444025800480258704402580CFCFFFF60
:1038A000304402582C4402583444025810B50320C6
:1038B000FFF7CAFA00F0BCF90400DFF85800DFF89F
:1038C00058100968C1F30321405C10F01F00C44088
:1038D000DFF84000DFF84010096811F00F01405C8C
:1038E00010F01F002100C140DFF830000160DFF858
:1038F00030000460002000F0D9FA002801D0012037
:1039000002E000F0FFFA002010BDDFF818000068A8
:10391000000C7047E44300081844025808000020D7
:10392000040000200010005CF8B504000D00002C1D
:1039300001D101207AE1DFF83005006810F00F00B6
:10394000A84211D2DFF820050068000900012843D1
:10395000DFF814150860DFF81005006810F00F009C
:10396000A84201D0012061E12078400711D5DFF89D
:103970001405006810F070002169884209D2DFF850
:103980000405016831F0700120690143DFF8F40497
:1039900001602078000711D5DFF8EC04006810F012
:1039A00070006169884209D2DFF8DC04016831F0F7
:1039B000700160690143DFF8D00401602078C0061F
:1039C00011D5DFF8C404006810F4E060A1698842F2
:1039D00009D2DFF8B404016831F4E061A069014361
:1039E000DFF8A40401602078800611D5DFF89C047C
:1039F000006810F07000E169884209D2DFF88C0499
:103A0000016831F07001E0690143DFF88004016072
:103A10002078800711D5DFF86C04006810F00F00E3
:103A2000E168884209D2DFF85C04016809090901EC
:103A3000E0680143DFF84C0401602078C0074DD5F1
:103A4000DFF84004016831F47061A0680143DFF8D9
:103A5000340401606068022806D1DFF810040068B1
:103A600080031CD40120E1E06068032806D1DFF860
:103A7000FC030068800112D40120D7E060680128AF
:103A800006D1DFF8E8030068C00508D40120CDE0C6
:103A9000DFF8D8030068400701D40120C6E0DFF852
:103AA000D0030168C908C90060680143DFF8C0039A
:103AB0000160FDF7FDFD0600DFF8B403006810F0BB
:103AC00038006168B0EBC10F08D0FDF7F1FD801B35
:103AD00041F289318842EFD30320A7E020788007A4
:103AE00011D5E068DFF89C13096811F00F018842D6
:103AF00009D2DFF89003016809090901E068014370
:103B0000DFF880030160DFF86003006810F00F0049
:103B1000854211D2DFF850030068000900012843F4
:103B2000DFF844130860DFF84003006810F00F006E
:103B3000A84201D0012079E02078400711D5206902
:103B4000DFF84013096811F07001884209D2DFF8EC
:103B50003403016831F0700120690143DFF8240368
:103B600001602078000711D56069DFF81C1309682F
:103B700011F07001884209D2DFF80C03016831F0BE
:103B8000700160690143DFF8000301602078C0061E
:103B900011D5A069DFF8F012096811F4E0618842DC
:103BA00009D2DFF8E402016831F4E061A069014361
:103BB000DFF8D40201602078800611D5E069DFF8D3
:103BC000CC12096811F07001884209D2DFF8BC02FA
:103BD000016831F07001E0690143DFF8B002016073
:103BE00000F026F80700DFF8B802DFF8981209683D
:103BF000C1F30321405C10F01F00C740DFF8A002B2
:103C0000DFF88012096811F00F01405C10F01F000E
:103C10003900C140DFF864020160DFF85C02076030
:103C2000DFF85C02006800F041F9C0B2F2BD0000AC
:103C300010B4DFF83C02006810F03800002806D00D
:103C4000082815D0102816D0182817D000E1DFF862
:103C50001C020068800608D5DFF81802DFF80C4265
:103C60002468C4F3C104E04001E0DFF80802F0E09A
:103C7000DFF83002EDE0DFF83002EAE0DFF81002B2
:103C8000006810F003000200DFF804020068C0F3CF
:103C900005100100DFF8FC01006810F001000300CE
:103CA000DFF8F8010068C0F3CC0000FB03F002EE7F
:103CB000100AB8EE422AB0EE421A002900F0C6807F
:103CC000002A03D0022A72D051D38FE0DFF89C0182
:103CD000006880062BD5DFF89C01DFF8904124684E
:103CE000C4F3C104E04002EE100AF0EE420AB8EE5E
:103CF000602A02EE901AF8EE622A82EE222ADFF89B
:103D000098010068C005C00D02EE900AF8EE622A24
:103D10009FED513A81EE033A72EE832AB7EE003AF4
:103D200072EE832A22EE222AF0EE421A1EE002EE02
:103D3000101AB8EE422ADFED492A82EE822ADFF815
:103D400058010068C005C00D02EE900AF8EE622A24
:103D50009FED413A81EE033A72EE832AB7EE003AC4
:103D600072EE832A22EE222AF0EE421A5CE002EE84
:103D7000101AB8EE422ADFED3A2A82EE822ADFF8E4
:103D800018010068C005C00D02EE900AF8EE622A24
:103D90009FED313A81EE033A72EE832AB7EE003A94
:103DA00072EE832A22EE222AF0EE421A3CE002EE64
:103DB000101AB8EE422ADFED2B2A82EE822A36480C
:103DC0000068C005C00D02EE900AF8EE622A9FED71
:103DD000223A81EE033A72EE832AB7EE003A72EE8F
:103DE000832A22EE222AF0EE421A1DE002EE101A79
:103DF000B8EE422ADFED1A2A82EE822A26480068AF
:103E0000C005C00D02EE900AF8EE622A9FED123A4C
:103E100081EE033A72EE832AB7EE003A72EE832AFD
:103E200022EE222AF0EE421A1B480068C0F3462018
:103E3000401C02EE100AB0EE420AB8EE402A81EEB3
:103E4000822ABCEEC22A12EE100A00E0002000E036
:103E5000144810BC70470000000000460024744C59
:103E60000024744A0024F44A0020005200440258FE
:103E7000104402580090D0030400002008000020E5
:103E800000000020184402581C44025820440258E4
:103E9000284402582C4402583044025834440258F2
:103EA000E443000800093D0000127A0010B5040048
:103EB00011480078002801D101201CE04FF47A70ED
:103EC0000D490978B0FBF1F00C490968B1FBF0F03D
:103ED000FEF7D9FF002801D001200CE0102C09D2F8
:103EE000002221005FF0FF30FEF7B4FF04480460B9
:103EF000002000E0012010BD0C0000200400002084
:103F00000000002081B00748006850F00200054919
:103F100008600448006810F002000090009801B0AA
:103F2000704700BFF44402583EB50024FF208DF8CE
:103F3000060000208DF8050000208DF80400FFF732
:103F4000B5FC00F051F8FDF7B9FBFEF7ECFA01AA59
:103F50000DF105010DF1060000F019F8641C2100B7
:103F600089B20A209DF8042000929DF805309DF842
:103F70000620B1FBF0F500FB151189B20020FEF719
:103F80000BFBFDF70FFD642000F09EF8DDE70B78DA
:103F9000002B0BD10378FF2B08D003785B1C037038
:103FA00000230B7013785B1E13701CE00B78FF2B43
:103FB0000BD01378002B08D103785B1E03700B78AD
:103FC0005B1C0B70002313700DE00378002B0AD1EB
:103FD0001378FF2B07D0002303700B785B1E0B7048
:103FE00013785B1C1370704710B59CB04C210022F5
:103FF00009AC2000FEF7E0FB2021002201AC2000EC
:10400000FEF7DAFB022000F073F8002000902B4846
:10401000006840084000294908602848006810F0FE
:10402000010000902648006850F440402449086090
:104030002348006810F44040009000982048006831
:104040008004FBD5012009905FF4A0200A90022093
:1040500012900220139001201490602015900220ED
:1040600016900C201790022018900C201990002018
:104070001A9000201B9009A8FFF760F8002801D0D3
:1040800000F020F83F2001900320029000200390D0
:104090000820049040200590402006904FF4806056
:1040A000079040200890022101A8FFF73DFC00285E
:1040B00001D000F007F81CB010BD00002C0400581F
:1040C0001848025872B6FEE770B50400FDF7F0FA22
:1040D0000500260016F1010F02D0044800783618BA
:1040E000FDF7E6FA401BB042FAD370BD0C00002089
:1040F00038B50400DFF85400006840070AD4DFF840
:104100004C00006810F00700A04201D001201CE024
:1041100000201AE0DFF834000068C008C000204327
:10412000DFF828100860FDF7C3FA0500DFF820006B
:104130000068800408D4FDF7BBFA401B40F2E93167
:104140008842F3D3012000E0002032BD0C48025821
:10415000044802583448006850F47000324908603E
:104160003248006810F00F00072807D22F48006877
:104170000009000150F007002C4908602C48006835
:1041800050F001002A49086000202A4908602848A8
:10419000016829480140264801602448006810F061
:1041A0000F00082807D3214800680009000150F0DB
:1041B00007001E49086000202049086000202049AF
:1041C000086000201F4908601F48204908602048F7
:1041D00020490860204821490860002020490860E3
:1041E0001D482049086000201F4908601A481F49DF
:1041F000086000201E4908600D48006830F48020E7
:104200000B49086000201B4908601B480068000C2F
:104210000004B0F1005F02D201201849086043F2A7
:10422000D20017490860704788ED00E00020005276
:1042300000440258104402587FEDF6EA1844025830
:104240001C4402582044025800020202284402582A
:104250000000FF012C440258800201013044025842
:1042600034440258384402583C44025840440258EE
:1042700044440258604402580010005C0881005118
:104280000040005230B4002512E050F8042BD30750
:1042900044BF4A44521E091F042942F8045BFAD263
:1042A00013468C0744BF15809B1CC90748BF1D706F
:1042B00050F8041B0029E8D130BC704710B50749FD
:1042C00079441831064C7C44163404E00A68081D11
:1042D000114488470146A142F8D110BD2C000000CE
:1042E000700000004EF68851CEF20001086840F4DC
:1042F00070000860BFF34F8FBFF36F8F4FF00070F7
:10430000E1EE100A704700007DFFFFFF040000008F
:1043100060000324E001000000020324B801000053
:104320001000002000000000F7E4FFFF0400000080
:10433000100300000000032400000000E3E4FFFF7E
:1043400010000000C000000000000020000000007D
:1043500000F00DF8002801D0FFF7B0FFAFF30080A8
:104360000020AFF30080FFF7DFFD00F002F801202E
:10437000704700F001B800000746384600F002F828
:10438000FBE7000080B5AFF30080024A110018205F
:10439000ABBEFBE7260002000548014603B46846B1
:1043A00080F30988AFF30080FFF79CFFFFF7D0FF91
:1043B000A5EDF5FE03480068034909784018014956
:1043C00008607047C40100200C000020FEE7FEE7F3
:1043D000FEE7FEE7FEE770477047704780B5FFF7DE
:1043E000E9FF01BD00000000010203040102030413
:1043F0000607080901488047014800475541000861
:1044000099430008100000000090D0030090D003F2
:10441000010500000006101600061016FFF7FEBF8B
:10442000FFF7FEBFFFF7FEBFFFF7FEBFFFF7FEBFC0
:10443000FFF7FEBFFFF7FEBFFFF7FEBFFFF7FEBFB0
:10444000FFF7FEBFFFF7FEBFFFF7FEBFFFF7FEBFA0
:10445000FFF7FEBFFFF7FEBFFFF7FEBFFFF7FEBF90
:04464000FFFFFFFF7A
:040000050800439913
:00000001FF
